:100000000C9472000C9493000C9493000C94930045
:100010000C9493000C9493000C9493000C94930014
:100020000C9493000C9493000C9493000C94930004
:100030000C9493000C9493000C9493000C94A501E1
:100040000C9493000C9493000C9493000C949300E4
:100050000C9493000C942A010C9493000C9493003C
:100060000C9493000C9493000C9493000C949300C4
:100070000C9493000C9493000C9493000C949300B4
:100080000C9493000C9493000C9493000C949300A4
:100090000C9493000C9493000C9493000C94930094
:1000A0000C9493000C9493000C9493000C94930084
:1000B0000C9493000C9493000C9493000C94930074
:1000C0000C9493000C9493000C9493000C94930064
:1000D0000C9493000C9493000C9493000C94930054
:1000E0000C94930011241FBECFEFD1E2DEBFCDBF31
:1000F00000E00CBF12E0A0E0B2E0E2E4F7E000E0D4
:100100000BBF02C007900D92A831B107D9F722E0CA
:10011000A8E1B2E001C01D92AF33B207E1F70E943F
:1001200067020C949F030C940000EEE6F0E08081DF
:100130008260808388E487BD85B58D6085BD089524
:1001400081E08093700082E08093B10008950F9366
:100150001F931092370210923802109239021092B7
:100160003A02009137021091380220913902309101
:100170003A02061717072807390798F31F910F91BE
:100180000895EF92FF920F931F93CF93DF93EC01AB
:100190008B01CA0120912402213071F48091010267
:1001A00080933002C8016AE070E00E945503FB01B1
:1001B000E25FFD4F808106C0223021F5809103026D
:1001C00080933002809331028AE0E82EF12CC8013E
:1001D000B7010E945503FC01EC5FFD4F80818093C5
:1001E000320280911D028130E1F48CE5809333026C
:1001F00083E680933402DF91CF911F910F91FF909E
:10020000EF9008956AE070E00E945503625F7D4FB1
:10021000FB01308130932F02FC01EC5FFD4F8081A8
:10022000BFCFCE01B7010E945503625F7D4FFB0136
:10023000308130933302213019F480910002D9CFFC
:10024000223019F480910202D4CFFC01E25FFD4F0D
:100250008081CFCF1F920F920FB60F9211248F93F0
:100260009F93AF93BF9380913B0290913C02A091EA
:100270003D02B0913E020196A11DB11D80933B024B
:1002800090933C02A0933D02B0933E0280913702CE
:1002900090913802A0913902B0913A020196A11DC5
:1002A000B11D8093370290933802A0933902B09326
:1002B0003A0280913B0290913C02A0913D02B091A4
:1002C0003E0284369105A105B105A9F5809122026F
:1002D0009091230201969093230280932202CC975F
:1002E00011F58091200290912102019690932102B4
:1002F000809320021092230210922202CC9799F44C
:1003000080911E0290911F02019690931F0280938C
:100310001E021092210210922002489721F410929E
:100320001F0210921E0210923B0210923C02109289
:100330003D0210923E0216BCBF91AF919F918F91EA
:100340000F900FBE0F901F9018951F920F920FB62F
:100350000F9211240BB60F92CF92DF92EF92FF9281
:100360002F933F934F935F936F937F938F939F93BD
:10037000AF93BF93EF93FF938FEF82B920912E023B
:1003800081E090E001C0880F2A95EAF7809585B951
:10039000E0912E02F0E0E15DFD4F8081809582B911
:1003A00080912E0290E0019666E070E00E94690361
:1003B00080932E0260912A0270912B0280912C0270
:1003C00090912D026F5F7F4F8F4F9F4F28EE33E04C
:1003D00040E050E00E947D036B017C01C0922A0244
:1003E000D0922B02E0922C02F0922D026091260214
:1003F0007091270280912802909129026F5F7F4FB0
:100400008F4F9F4F20E137E240E050E00E947D0394
:10041000609326027093270280932802909329020A
:1004200090911C02913009F54091180250911902E7
:1004300020911E0230911F0242175307B1F44091E0
:100440001A0250911B022091200230912102421782
:10045000530759F4CD28CE28CF2839F480912502AE
:1004600081112EC018B89093250280912402882310
:1004700071F08091260290912702A0912802B091FC
:100480002902892B8A2B8B2B11F4109224021092B3
:10049000B200FF91EF91BF91AF919F918F917F91AA
:1004A0006F915F914F913F912F91FF90EF90DF906F
:1004B000CF900F900BBE0F900FBE0F901F9018950E
:1004C000813099F61092250288E088B9CECF8FEF5F
:1004D00081B912B884B985B988E087B98CE38BB942
:1004E0000E94A0000E9495007894C1E012E0DCE335
:1004F00080911D02813009F0B7C0409118025091DF
:10050000190260911A0270911B0290E080E00E9433
:10051000C1004C9917C080911D02811113C068E27F
:1005200070E080E090E00E94A70080911E02909110
:100530001F0201968831910509F4A3C090931F0210
:1005400080931E024D9917C080911D02811113C026
:1005500068E270E080E090E00E94A70080912002B5
:100560009091210201968C33910509F48FC09093EC
:100570002102809320024A990CC080911D028111B2
:1005800008C068E270E080E090E00E94A700C0939D
:100590001D024C9917C080911D02813099F468E2C8
:1005A00070E080E090E00E94A70080911802909196
:1005B000190201968831910509F46DC090931902D2
:1005C000809318024D9917C080911D02813099F4D3
:1005D00068E270E080E090E00E94A70080911A023B
:1005E00090911B0201968C33910509F459C09093A8
:1005F0001B0280931A024B990CC080911D0281301E
:1006000041F468E270E080E090E00E94A700109260
:100610001D024B9912C080911D0281110EC0809164
:100620001C0281110AC068E270E080E090E00E9444
:10063000A700C0931C02C09324024B9959CF80910C
:100640001D02811155CF80911C02813009F050CFDD
:1006500068E270E080E090E00E94A70010921C0227
:1006600010932402DBB944CF40911E0250911F0227
:1006700060912002709121028091220290912302C8
:1006800046CF10921F0210921E025CCF10922102E0
:100690001092200270CF109219021092180292CF7D
:1006A00010921B0210921A02A6CFAA1BBB1B51E18B
:1006B00007C0AA1FBB1FA617B70710F0A61BB70BD2
:1006C000881F991F5A95A9F780959095BC01CD0177
:1006D000089597FB072E16F4009407D077FD09D0F4
:1006E0000E94550307FC05D03EF4909581959F4FDD
:1006F0000895709561957F4F0895A1E21A2EAA1B67
:10070000BB1BFD010DC0AA1FBB1FEE1FFF1FA217C1
:10071000B307E407F50720F0A21BB30BE40BF50BBE
:10072000661F771F881F991F1A9469F76095709547
:10073000809590959B01AC01BD01CF010895F8947F
:02074000FFCFE9
:10074200773F3F3FBF86DBCFE6EDFD87FFEF3F06FA
:080752005B4F666D7D077F6FB0
:00000001FF
