:020000020000FC
:040000000C943B0021
:040038000C94230001
:10004400189510FE12C06395693121F0633069F48C
:1000540042980BC0E89410F888B972B9662768947E
:1000640010F8770F1395193009F0189571E01127DE
:10007400F1CF01E20EBF0FEF0DBF6FEF61B960E486
:1000840065B960E06AB96FEF67B90FE00093B1003A
:100094000DEF0093B40004E0009370006627112470
:1000A400112771E084E078941E9905C0689410F8D3
:0800B4007030F1F7FDCFF8CF29
:00000001FF
