:100000000C9472000C9493000C9493000C94930045
:100010000C9493000C9493000C9493000C94930014
:100020000C9493000C9493000C9493000C94930004
:100030000C9493000C9493000C9493000C949300F4
:100040000C9493000C9493000C9493000C949300E4
:100050000C9493000C9499010C9493000C949300CD
:100060000C9493000C9493000C9493000C949300C4
:100070000C9493000C9493000C9493000C949300B4
:100080000C9493000C9493000C9493000C949300A4
:100090000C9493000C9493000C9493000C94930094
:1000A0000C9493000C9493000C9493000C94930084
:1000B0000C9493000C9493000C9493000C94930074
:1000C0000C9493000C9493000C9493000C94930064
:1000D0000C9493000C9493000C9493000C94930054
:1000E0000C94930011241FBECFEFD1E2DEBFCDBF31
:1000F00000E00CBF12E0A0E0B2E0E2EAFCE000E0C9
:100100000BBF02C007900D92AA30B107D9F726E0C5
:10011000AAE0B2E001C01D92AF30B207E1F70E9441
:1001200047040C944F060C94000012B88FEF81B96D
:100130001BB88AB908955A9882B90895589A82B915
:100140005A9A8EE991E00197F1F700C05A98089504
:100150008295880F880F807C860F0C949E0011B8C2
:1001600012B85898599A5A985A9A00C00799FBCFD2
:100170005A980895CF93C82F0E94AF00589A599863
:100180008FEF81B9C2B95A9A00C05A98CF91089599
:10019000CF93C82F0E94AF00589859988FEF81B91C
:1001A000C2B95A9A00C05A98CF910895813029F463
:1001B0008FEF860F80680C94C8008FE3FACF29E98F
:1001C00089E591E0215080409040E1F70000589887
:1001D00088E30E949B005A9A00C05A9828EB2A95FF
:1001E000F1F700005A9A00C05A9888EB8A95F1F707
:1001F00000005A9A00C05A9898EB9A95F1F70000BF
:100200008CE00E949B005A9A27E32A95F1F70000A0
:100210005A9888EB8A95F1F7000084E00E949B00D1
:100220005A9A00C05A9898EB9A95F1F7000081E02D
:100230000E949B005A9A27E32A95F1F700005A98EA
:10024000089588E80E94C80080E30E94BA0080E315
:100250000E94BA008AE30E94BA0080E30E94BA00BA
:1002600080E30E94BA008AE30E94BA0080E30E9401
:10027000BA0080E30E94BA000895EEE6F0E08081C3
:100280008260808388E487BD85B58D6085BD789464
:1002900010920E060895CF9380509E4FFC01C081AE
:1002A0008FE80E94C8008C2F0E94BA00CF91089559
:1002B000CF9380509E4FFC01C0818EE80E94C80001
:1002C0008C2F0E94BA00CF910895CF9380509E4FFB
:1002D000FC01C0818CE80E94C8008C2F0E94BA00EB
:1002E000CF910895CF9380509E4FFC01C0818BE841
:1002F0000E94C8008C2F0E94BA00CF910895CF931E
:1003000080509E4FFC01C08189E80E94C8008C2F5C
:100310000E94BA00CF910895CF9380509E4FFC0168
:10032000C08188E80E94C8008C2F0E94BA00CF913B
:1003300008951F920F920FB60F9211240BB60F92D1
:100340002F933F934F935F936F937F938F939F93DD
:10035000AF93BF93EF93FF9380910E068F5F8093CF
:100360000E0680910E06843008F486C08091160235
:1003700090911702892B09F07FC080911202909111
:100380001302892B09F078C080914C0290914D02A4
:10039000019690934D0280934C020A9708F464C032
:1003A00080914A0290914B02019690934B02809368
:1003B0004A0210924D0210924C02069708F44EC069
:1003C000809148029091490201969093490280934E
:1003D000480210924B0210924A020E9465018091DD
:1003E0004802909149020A97C8F180914602909183
:1003F0004702019690934702809346021092490269
:10040000109248020E947201809146029091470228
:10041000069720F1809144029091450201969093B5
:1004200045028093440210924702109246020E94B5
:100430007F0180914402909145020A9778F0809163
:1004400042029091430201969093430280934202AC
:1004500010924502109244020E948C0180914A023F
:1004600090914B020E94580180914C0290914D0254
:100470000E944B0110920E06FF91EF91BF91AF9138
:100480009F918F917F916F915F914F913F912F91AC
:100490000F900BBE0F900FBE0F901F90189580917C
:1004A0004C0290914D020E944B0180914A02909122
:1004B0004B020E94580180914802909149020E948B
:1004C000650180914602909147020E9472018091DD
:1004D0004402909145020E947F01809142029091D6
:1004E00043020E948C011092170210921602109281
:1004F0001302109212020895CF93C82F80E80E9431
:10050000C8008C2F0E94BA00CF910895CF93C82FB6
:1005100081E80E94C8008C2F0E94BA00CF910895F4
:100520001F93CF93DF93EC01FC01E050FE4F10814D
:1005300080910C0290910D02019690930D02809390
:100540000C0220911602309117022130310509F07A
:1005500064C0019771F48FE80E94C800812F0E9447
:10056000BA00D0933502C0933402D0931902C093DD
:10057000180280910C0290910D02029771F48EE89E
:100580000E94C800812F0E94BA00D0933302C0930A
:100590003202D0931B02C0931A0280910C029091F8
:1005A0000D02039751F48CE80E94C800812F0E942D
:1005B000BA00D0933102C093300280910C02909126
:1005C0000D02049751F48BE80E94C800812F0E940D
:1005D000BA00D0932F02C0932E0280910C0290910A
:1005E0000D02059751F489E80E94C800812F0E94EE
:1005F000BA00D0932D02C0932C0280910C029091EE
:100600000D02069751F488E80E94C800812F0E94CD
:10061000BA00D0932B02C0932A02809112029091CB
:100620001302019709F068C080910C0290910D02AD
:10063000019771F48FE80E94C800812F0E94BA00D0
:10064000D0934D02C0934C02D0931902C09318026C
:1006500080910C0290910D02029771F48EE80E9435
:10066000C800812F0E94BA00D0934B02C0934A0267
:10067000D0931B02C0931A0280910C0290910D023C
:10068000039751F48CE80E94C800812F0E94BA00A1
:10069000D0934902C093480280910C0290910D02C0
:1006A000049751F48BE80E94C800812F0E94BA0081
:1006B000D0934702C093460280910C0290910D02A4
:1006C000059751F489E80E94C800812F0E94BA0062
:1006D000D0934502C093440280910C0290910D0288
:1006E000069751F488E80E94C800812F0E94BA0042
:1006F000D0934302C0934202DF91CF911F9108959E
:1007000080914C0290914D020E944B0180914A02CF
:1007100090914B020E9458018091480290914902A9
:100720000E94650180914602909147020E947201E9
:1007300080914402909145020E947F018091420283
:10074000909143020C948C0180E80E94C80080E2E2
:100750000E94BA0080E20E94BA0080913402909117
:1007600035020E944B0180913202909133020E9427
:10077000580180913002909131020E946501809170
:100780002E0290912F020E94720180912C02909172
:100790002D020E947F0180912A0290912B020C94DD
:1007A0008C0180E80E94C80080E20E94BA0080E2CA
:1007B0000E94BA0080914002909141020E944B0138
:1007C00080913E0290913F020E94580180913C022C
:1007D00090913D020E94650180913A0290913B0206
:1007E0000E94720180913802909139020E947F012B
:1007F00080913602909137020C948C012B9A2FEF46
:100800008FE593E0215080409040E1F700C0000068
:1008100085B115B808952B9A2FEF8FEA91E02150FA
:1008200080409040E1F700C0000085B115B82FEF7F
:100830008FEA91E0215080409040E1F700C0000035
:100840002B9A2FEF8FEA91E0215080409040E1F702
:1008500000C0000085B115B808952B9A2FEF8FEADC
:1008600091E0215080409040E1F700C0000085B148
:1008700015B808952B9A2FEF8FE698E0215080400D
:100880009040E1F700C0000085B115B808959FE0E1
:1008900097B980EF88B994B985B90E9495000E94F4
:1008A000DF000E9421010E943D01C1E01EEF00EF28
:1008B0008DEFF82E9BEFE92E27EFD22E86B1C130B7
:1008C00009F0DFC1803F09F459C12FEF8FEA91E0B1
:1008D000215080409040E1F700C0000018B90000AE
:1008E00098B186B1981709F435C10E942D0486B1DC
:1008F0008737E9F480912602909127020196909320
:100900002702809326028130910509F090C19093CF
:10091000150280931402909329028093280210926A
:10092000270210922602109211021092100286B134
:100930008B37A1F5C0910E02D0910F022196D09372
:100940000F02C0930E02C130D10571F4109229023A
:10095000109228020E94A403D0932102C093200287
:10096000D0931702C093160280910E0290910F024D
:100970000297A1F410920F0210920E0281E090E013
:1009800090932902809328020E94800310922102F2
:1009900010922002109217021092160286B1873B25
:1009A00011F40E944F0286B18D37A1F5C0910E025D
:1009B000D0910F022196D0930F02C0930E02C13046
:1009C000D10571F410922902109228020E94D103DD
:1009D000D0930B02C0930A02D0931702C093160261
:1009E00080910E0290910F020297A1F410920F02D3
:1009F00010920E0281E090E09093290280932802E9
:100A00000E94800310920B0210920A0210921702A9
:100A10001092160286B186B18E37C9F480910E020B
:100A200090910F02019690930F0280930E028130F5
:100A3000910509F012C11092290210922802909398
:100A40000B0280930A02909313028093120286B1E4
:100A50008E3E51F480910E0290910F02019721F485
:100A600081E090E00E94900286B18E3D51F4809129
:100A70000E0290910F02019721F482E090E00E9413
:100A8000900286B18E3B51F480910E0290910F023C
:100A9000019721F483E090E00E94900286B18D3EA0
:100AA00051F480910E0290910F02019721F484E09D
:100AB00090E00E94900286B18D3D51F480910E022B
:100AC00090910F02019721F485E090E00E9490023E
:100AD00086B18D3B51F480910E0290910F020197E7
:100AE00021F486E090E00E94900286B18B3E51F4A2
:100AF00080910E0290910F02019721F487E090E01F
:100B00000E94900286B18B3D51F480910E0290912B
:100B10000F02019721F488E090E00E94900286B1D4
:100B20008B3B51F480910E0290910F02019721F4BA
:100B300089E090E00E94900286B1873DE9F48091BF
:100B40000E0290910F020197B9F490E080E00E94AC
:100B5000900212C0F8B8000098B186B19813C5CEC3
:100B6000E8B8000098B186B19813BFCED8B800009D
:100B700098B186B19813B9CE08B9C0E020914C0263
:100B800030914D0280913402909135022817390737
:100B900009F03FC020914A0230914B02809132020D
:100BA0009091330228173907A1F52091480230911E
:100BB000490280913002909131022817390749F596
:100BC000209146023091470280912E0290912F028F
:100BD00028173907F1F420914402309145028091A1
:100BE0002C0290912D022817390799F42091420286
:100BF0003091430280912A0290912B0228173907E5
:100C000041F48091140290911502019711F40E9411
:100C10000B048091140290911502019709F04ECEB9
:100C200080E80E94C80081E40E94BA0047CE029783
:100C300009F07DCE10921502109214021092290232
:100C40001092280281E090E0909327028093260280
:100C500090931102809310026ACE029709F0F7CEAA
:100C600010920F0210920E0281E090E09093290200
:100C7000809328020E94800310920B0210920A02B5
:100C8000E6CE803F09F07ACF2FEF8FEB96E0215030
:100C900080409040E1F700C00000C1E06FCFF894C1
:020CA000FFCF84
:0A0CA200303132333435363738393B
:00000001FF
