:100000000C94C9030C94E6030C94E6030C94E603E9
:100010000C94E6030C94E6030C94E6030C94E603BC
:100020000C94E6030C94E6030C94E6030C94E603AC
:100030000C94E6030C94E6030C94E6030C94E6039C
:100040000C94E6030C94E6030C94E6030C94E6038C
:100050000C94E6030C94E6030C94E6030C94E6037C
:100060000C94E6030C94E6030C94E6030C94E6036C
:100070000C94E6030C94E6030C94E6030C94E6035C
:100080000C94E6030C94E6030C94E60348656C6C50
:100090006F00000000000000000020202020200051
:1000A000200050505000000000005050F850F85010
:1000B00050002078A07028F020000000C8D0205800
:1000C00098006090A040A890680060204000000068
:1000D0000000102040404020100040201010102050
:1000E00040000020A870A8200000002020F8202058
:1000F0000000000000003010200000000000F800A8
:100100000000000000000060600000081020408037
:100110000000708898A8C8887000206020202020E7
:100120007000708808102040F800F810201008882F
:10013000700010305090F8101000F880F008088817
:100140007000304080F088887000F808102040402F
:1001500040007088887088887000708888780810DF
:10016000600000606000606000000060600060206F
:10017000400010204080402010000000F800F800EF
:100180000000402010081020400070880810200057
:100190002000007098A8B080700070888888F88867
:1001A0008800F08888F08888F000708880808088D7
:1001B0007000E09088888890E000F88080F080806F
:1001C000F800F88080F080808000708880B888888F
:1001D0007800888888F8888888007020202020206F
:1001E000700038101010109060008890A0C0A0908F
:1001F0008800808080808080F80088D8A8A88888BF
:1002000088008888C8A89888880070888888888826
:100210007000F08888F08080800070888888A890BE
:100220006800F08888F0A0908800788080700808C6
:10023000F000F820202020202000888888888888E6
:1002400070008888888888502000888888A8A8A896
:100250005000888850205088880088888850202046
:100260002000F80810204080F800704040404040D6
:100270007000008040201008000070101010101056
:100280007000205088000000000000000000000006
:10029000F80040201000000000000000700878887E
:1002A00078008080B0C88888F00000007080808866
:1002B0007000080868988888780000007088F880C6
:1002C0007000304840E0404040000078888878085E
:1002D00070008080B0C888888800200060202020BE
:1002E00070001000301010906000808090A0C0A0BE
:1002F000900060202020202070000000D0A8A88856
:1003000088000000B0C8888888000000708888884D
:1003100070000000F088F080800000006898780885
:1003200008000000B0C88080800000007080700865
:10033000F0004040E0404048300000008888889845
:100340006800000088888850200000008888A8A8DD
:1003500050000000885020508800000088887808ED
:1003600070000000F8102040F800102020402020ED
:1003700010002020202020202000402020102020BD
:100380004000000040A81000000000000000000035
:10039000000000000000000000000000000000005D
:1003A000000000000000000000000000000000004D
:1003B000000000000000000000000000000000003D
:1003C000A8002020F820202020202020F82020F83D
:1003D0002020003840F040F04038000000000000CD
:1003E000000000000000000000000000000000000D
:1003F00000000000000000000000000000000000FD
:1004000000000000000000000000000000000000EC
:10041000000000000000000000002040600000001C
:10042000000030102000000000004890D8000000BC
:100430000000D848900000000000000070F8F8703C
:1004400000000000000000000000000000000000AC
:100450000000000000F09090F0000000000000009C
:10046000000000000000000000000000000000008C
:10047000000000000000000000000000000000007C
:10048000000000000000000000000000000000006C
:10049000000000000000000000000000000000005C
:1004A000000000000000000000000000000000004C
:1004B0000000008870507088000008F880808080FC
:1004C000800020202000002020207088609048308C
:1004D00088705000F880E080F80000003040403024
:1004E0000000708880E080887000002850A05028AC
:1004F00000000000F808000000000000007000008C
:1005000000000000000000000000500070202020CB
:10051000700000205020000000002020F820200063
:10052000F8007020202020207000002000202020D3
:1005300020000000107040404000000050505078F3
:1005400040400078E8E86828282800000060600043
:10055000000090006090E080700018180090D0B00B
:10056000900000007080E080700000A0502850A033
:10057000000000000000000000000000000000007B
:10058000000000000000000000000000500060209B
:10059000700020508888F8888800F88080F088886B
:1005A000F000F08888F08888F000F88080808080F3
:1005B00080007050505050F88800F88080F08080A3
:1005C000F800A8A8A870A8A8A80070880830088813
:1005D0007000888898A8C8888800208898A8C8884B
:1005E00088008890A0C0A0908800384848484848B3
:1005F000880088D8A8A888888800888888F888888B
:1006000088007088888888887000F888888888883A
:100610008800F08888F080808000708880808088E2
:100620007000F82020202020200088888878080882
:10063000700070A8A8A870202000888850205088DA
:1006400088009090909090F8080088888878080832
:10065000080088A8A8A8A8A8F800A8A8A8A8A8F88A
:100660000800C040407048487000888888C8A8A822
:10067000C8004040407048487000708808380888BA
:10068000700090A8A8E8A8A89000788888782848E2
:1006900088000000700878887800087080F08888EA
:1006A00070000000E090E090E0000000F09080809A
:1006B00080000000705050F8880000007088F880BA
:1006C00070000000A8A870A8A800000070083008FA
:1006D000700000008898A8C8880050208898A8C892
:1006E0008800000090A0C0A0900000003848484852
:1006F0008800000088D8A888880000008888F888CA
:10070000880000007088888870000000F888888859
:1007100088000000F088F0808000000070808080F9
:1007200070000000F8202020200000008888780851
:100730007000000070A87020200000008850205039
:1007400088000000909090F80800000088887808E1
:1007500008000000A8A8A8A8F8000000A8A8A8F809
:1007600008000000C0407048700000008888C8A8D9
:10077000C800000040407048700000007088388851
:100780007000000090A8E8A8900000007888782801
:10079000C80011241FBECFEFD0E1DEBFCDBF11E0F6
:1007A000A0E0B1E0E0E9FFE002C005900D92A031C9
:1007B000B107D9F721E0A0E1B1E001C01D92AF314E
:1007C000B207E1F70E94B8070C94C6070C9400002A
:1007D0001ABA1BBAA898A99AAA98AA9A0000CF99FF
:1007E000FBCFAA980895CF93C82F0E94E803A8983A
:1007F000A9988FEF8ABBCBBBAA9A0000AA98CF9189
:100800000895CF93C82F80911201803168F48F5FD3
:10081000809312010E94E803A89AA9988FEF8ABBDF
:10082000CBBBAA9A0000AA98CF9108950F931F936B
:10083000CF93DF938C01D0E0C0E0F801EC0FFD1FF7
:100840008081882339F080810E9401042196CF3F66
:10085000D10599F7DF91CF911F910F910895CF9313
:10086000DF93C82F613108F04DC08FEF860F809362
:100870001201C23071F100F586958058C13019F12E
:100880008091120180FF3EC00E94E8031ABA1BBA91
:10089000A89AA99AAA9A0000D9B3AA98C23069F175
:1008A000D8F48091120186958058C130F1F08D2FD7
:1008B000DF91CF910C940104C33041F086958856A6
:1008C000C430F1F680680E94F303DACF869588572A
:1008D000F9CF86958057F6CFC33051F08091120141
:1008E00086958856C43019F780680E94F303DFCFDD
:1008F0008091120186958857F7CF809112018695D5
:100900008057F2CFDF91CF9108950F931F93CF932C
:100910008930C8F56131B8F5809302018530B8F5AA
:10092000815E880F880F880F80931101615060935A
:1009300010018091100180FF26C007E111E0C0E0A6
:10094000809111018C0F80680E94F3038091100147
:10095000869580680E94F3030E94E8031ABA1BBAC6
:10096000A89AA99AAA9A0000AA988DE08A95F1F708
:100970000000AA9A000089B3F80181938F01AA9818
:10098000CF5FC830E9F6CF911F910F910895855E32
:10099000880F880F880F80931101615FC8CFCF93B4
:1009A000C82F0E94E803A89AA9988FEF8ABBCBBBF7
:1009B000AA9A0000AA98CF9108951F93CF93DF932E
:1009C000109211011092100181E080930201C0E0A9
:1009D000D0E01C2F1068812F0E94F3038D2F8068B8
:1009E0000E94F30380E00E94CF0480E00E94CF04C5
:1009F000DF5FD03181F7CF5FC03251F7DF91CF9108
:100A00001F9108959FEF9ABB1BBA94B3976094BB54
:100A1000E3EDF0E33197F1F700C00000AB9AA8983E
:100A2000A99890E39BBBAA9A0000AA98F8E2FA95CD
:100A3000F1F7AA9A0000AA9890E19A95F1F700C000
:100A400081111DC08CE08BBBAA9A0000AA98E8E235
:100A5000EA95F1F781E08BBBAA9A0000AA9883EC93
:100A600099E00197F1F700C0000086E08BBBAA9ADD
:100A70000000AA9896E09A95F1F700C00895813099
:100A8000A1F484E38BBBAA9A0000AA98EAE1EA9554
:100A9000F1F700C086E38BBBAA9A0000AA98FAE19E
:100AA000FA95F1F700C00C94DD040895EF92FF92DF
:100AB0000F931F93CF93DF93C82F9091020199302A
:100AC00040F4809110018032D0F5953010F48031DF
:100AD000B0F5C052DD0B83E0CC0FDD1F8A95E1F746
:100AE00097E1E92E91E0F92E10E000E0CE56DF4FBD
:100AF00080911101800F80680E94F30380911001A2
:100B0000869580680E94F3038091100180FF04C0E5
:100B1000F70180810E94CF04FE01E00FF11F849154
:100B2000F70181937F010E94CF040F5F1F4F0830B0
:100B30001105F1F6809110018F5F80931001DF9114
:100B4000CF911F910F91FF90EF9008957F928F9218
:100B50009F92AF92BF92CF92DF92EF92FF920F934C
:100B60001F93CF93DF935C01D0E0C0E045018C0E72
:100B70009D1ED4018C91882309F471C090910201CB
:100B8000993050F480911001803208F068C095309F
:100B900018F4803108F063C027E1E22E21E0F22E44
:100BA00010E000E0712C6E01BFEFCB1ADB0ACA0C1B
:100BB000DB1C80911101800F80680E94F3038091FB
:100BC0001001869580680E94F3038091100180FFD8
:100BD00004C0F70180810E94CF04D401EC91E0525F
:100BE000FF0B93E0EE0FFF1F9A95E1F7E00FF11F67
:100BF000EE56FF4F8491F70180830E94CF048091CD
:100C0000100180FD17C0D6018C91882399F0EC91DA
:100C1000E052FF0B83E0EE0FFF1F8A95E1F7E00F34
:100C2000F11FEE56FF4F8491F70180830E94CF049D
:100C3000772473940F5F1F4FFFEFEF1AFF0A0830FE
:100C4000110509F0B6CF80911001711016C08F5FA9
:100C5000809310012196C031D1050CF487CFDF912C
:100C6000CF911F910F91FF90EF90DF90CF90BF90A9
:100C7000AF909F908F907F90089521968E5FE8CFE0
:100C80007F928F929F92AF92BF92CF92DF92EF921C
:100C9000FF920F931F93CF93DF935C01D0E0C0E0EE
:100CA00045018C0E9D1EF4018491882309F475C0C2
:100CB00090910201993050F480911001803208F037
:100CC0006CC0953018F4803108F067C027E1E22E3F
:100CD00021E0F22E10E000E0712C6E01FFEFCF1A40
:100CE000DF0ACA0CDB1C80911101800F80680E9412
:100CF000F30380911001869580680E94F303809130
:100D0000100180FF04C0F70180810E94CF04F4012C
:100D10008491282F2052330BF90193E0EE0FFF1F2F
:100D20009A95E1F7E00FF11FEE56FF4F8491F7011E
:100D300080830E94CF048091100180FD19C0F601CC
:100D400084918823A9F08491282F2052330BF90134
:100D500083E0EE0FFF1F8A95E1F7E00FF11FEE56DB
:100D6000FF4F8491F70180830E94CF04772473940E
:100D70000F5F1F4FFFEFEF1AFF0A0830110509F050
:100D8000B2CF80911001711016C08F5F8093100157
:100D90002196C031D1050CF483CFDF91CF911F9103
:100DA0000F91FF90EF90DF90CF90BF90AF909F900A
:100DB0008F907F90089521968E5FE8CF1092160154
:100DC000109215012091150130911601281739074D
:100DD0000CF00895000020911501309116012F5F4D
:100DE0003F4F3093160120931501ECCFCF93DF9343
:100DF000EC01109214011092130180911301909153
:100E000014018C179D071CF0DF91CF9108958CE29F
:100E100091E00E94DE0680911301909114010196E9
:100E20009093140180931301E8CFB3990DC0809182
:100E30000001909101018E3521E092072CF40A9671
:100E40009093010180930001B4990CC0809100013E
:100E500090910101833091052CF00A979093010144
:100E600080930001C19AC29888E882BB80910001FA
:100E7000909101010E94F60682E282BB80910001FE
:100E8000909101010E94F60684E482BB80910001EA
:100E9000909101010E94F60681E182BB80910001E0
:100EA000909101010C94F6061ABA8FEF8BBB17BA1A
:100EB00088BB14BA85BB11BA82BB81E00C940205D1
:100EC000B3990DC080910001909101018E3521E010
:100ED00092072CF401969093010180930001B4993C
:100EE0000CC08091000190910101833091052CF09C
:100EF00001979093010180930001C29AC19881E10A
:100F000082BB80910001909101010E94F60684E469
:100F100082BB80910001909101010E94F60682E25D
:100F200082BB80910001909101010E94F60688E841
:100F300082BB80910001909101010C94F606B0995A
:100F40000AC00E94150761E083E00E94850483E0E7
:100F500091E00E94A605B09B0AC00E94600761E074
:100F600083E00E9485048AE091E00C94A605089530
:100F70008FEF81BB12BA89E388BB86E487BB0E94EE
:100F80005407B599FECF0E949F07FBCFF894FFCF7F
:100F90000A0001C2EFF0E0E2EE00C2EBB3E2EE00C5
:00000001FF
