:100000000C943E000C9450000C9450000C94500042
:100010000C9450000C9450000C9450000C94500020
:100020000C9450000C9450000C9450000C94500010
:100030000C9450000C9450000C9450000C94500000
:100040000C9450000C9450000C9450000C945000F0
:100050000C9469000C9427010C945A010C945000E4
:100060000C9450000C9450000C9450000C945000D0
:100070000C94E9000C9490000C94C70011241FBE4E
:10008000CFEFD8E0DEBFCDBF21E0A0E0B1E001C0FE
:100090001D92A732B207E1F70E948B010C949901DF
:1000A0000C94000090910501E92FF0E0E95FFE4F0C
:1000B00080839F5F9F7090930501F8948091020167
:1000C000811105C08091C90080628093C900789435
:1000D00008951F920F920FB60F9211242F933F9302
:1000E0004F935F936F937F938F939F93AF93BF9340
:1000F000EF93FF938091C60090E00E945200FF9121
:10010000EF91BF91AF919F918F917F916F915F918F
:100110004F913F912F910F900FBE0F901F90189508
:100120001F920F920FB60F9211248F939F93EF930C
:10013000FF935A9A8091C90081608093C9000000A2
:10014000E091060181E08E0F80930601F0E0E95F07
:10015000FE4F80818093CE00809106018F70809346
:10016000060190910501891721F0809102018130EB
:1001700029F48091C9008F7D8093C900FF91EF9190
:100180009F918F910F900FBE0F901F9018951F9207
:100190000F920FB60F9211245A980F900FBE0F9026
:1001A0001F90189590910301E92FF0E0E95EFE4F52
:1001B00080839F5F9F7090930301F8948091010169
:1001C000811105C08091C10080628093C100789444
:1001D00008951F920F920FB60F9211242F933F9301
:1001E0004F935F936F937F938F939F93AF93BF933F
:1001F000EF93FF938091CE0090E00E94D200809117
:1002000000018F5F843099F080930001FF91EF919E
:10021000BF91AF919F918F917F916F915F914F911E
:100220003F912F910F900FBE0F901F901895109235
:10023000000110920201909106018091050198172A
:1002400029F38091C90080628093C900DFCF1F929B
:100250000F920FB60F9211248F939F93EF93FF93FA
:10026000E091040181E08E0F80930401F0E0E95EEB
:10027000FE4F80818093C60081E0809301018091D0
:1002800004018F708093040190910301891721F07C
:1002900080910101813029F48091C1008F7D80938C
:1002A000C100FF91EF919F918F910F900FBE0F9022
:1002B0001F9018951F920F920FB60F921124109253
:1002C00001010F900FBE0F901F9018958FEF81B90D
:1002D00012B884B915B887B918B88AEF8AB985E019
:1002E0008BB98BE38093CC001092CD001092C800A4
:1002F0009EE09093CA009CED9093C9008093C40047
:100300001092C5001092C00088ED8093C10086E075
:100310008093C2000895F8940E9466012FEF8FE544
:1003200094E5215080409040E1F700C000007894AF
:06033000FFCFF894FFCF9F
:00000001FF
