:100000000C942A000C9447000C9447000C94470071
:100010000C9447000C9447000C9464020C94470025
:100020000C9447000C9447000C9447000C945D041A
:100030000C94AE040C9499040C9447000C94470063
:100040000C9447000C9447000C9447000C94470014
:100050000C94470011241FBECFE5D4E0DEBFCDBF16
:1000600010E0A0E6B0E0EEE8FBE002C005900D92E3
:10007000A038B107D9F720E0A0E8B0E001C01D9298
:10008000A239B207E1F70E940B050C94C5050C9448
:10009000000018BA8FEF87BB15BA84BB0895AA98E1
:1000A00088BB0895A89A88BBAA9A82E38A95F1F73B
:1000B000AA9808958295880F880F807C860F0C94EB
:1000C000520017BA18BAA898A99AAA98AA9A000032
:1000D000B799FBCFAA980895CF93C82F0E946100CB
:1000E000A89AA9988FEF87BBC8BBAA9A0000AA98C4
:1000F000CF9108950F931F93CF93DF938C01D0E09E
:10010000C0E0F801EC0FFD1F8081882339F0808169
:100110000E946C002196CF3FD10599F7DF91CF91D6
:100120001F910F910895CF93C82F0E946100A89846
:10013000A9988FEF87BBC8BBAA9A0000AA98CF9155
:100140000895813029F48FEF860F80680C94930016
:100150008FE3FACF8FE097E20197F1F700C000003C
:10016000A89888E30E944F00AA9A0000AA9890E1FC
:100170009A95F1F700C0AA9A0000AA9880E18A95A2
:10018000F1F700C0AA9A0000AA9890E19A95F1F7B9
:1001900000C08CE00E944F00AA9A85E08A95F1F792
:1001A000AA9890E19A95F1F700C084E00E944F0070
:1001B000AA9A0000AA9880E18A95F1F700C081E030
:1001C0000E944F00AA9A95E09A95F1F7AA9808958F
:1001D000CF93DF9300D000D000D01F92CDB7DEB711
:1001E00029833A834B835C836D837E838F83E9818C
:1001F000FA81AD81BE812C91382F81E090E001C061
:10020000880F3A95EAF78095922F98239C939081D6
:100210008923808380EA8A95F1F727960FB6F894B0
:10022000DEBF0FBECDBFDF91CF910895CF93DF9397
:1002300000D000D000D01F92CDB7DEB729833A831B
:100240004B835C836D837E838F83E981FA810FB654
:1002500007FE36C0F894908141E050E09A01082EE4
:1002600001C0220F0A94EAF7922B908390EA9A95A4
:10027000F1F7908120952923208397E19A95F1F752
:100280000000EB81FC8190818923F9F010928D00B0
:1002900010928C0088E88A95F1F700C08091860062
:1002A00090918700892B09F0789480918C00279693
:1002B0000FB6F894DEBF0FBECDBFDF91CF9108958A
:1002C0001092870010928600C6CF50938D00409305
:1002D0008C00E0CFCF93DF9300D000D000D01F92EE
:1002E000CDB7DEB729833A834B835C836D837E83EE
:1002F0008F83E981FA812081382F81E090E0032EFD
:1003000001C0880F0A94EAF7922F982B908322E07D
:100310002A95F1F7908180958923808383E08A95DF
:10032000F1F7EB81FC81808192E19A95F1F7000071
:1003300090E002C0959587953A95E2F781702796EF
:100340000FB6F894DEBF0FBECDBFDF91CF910895F9
:10035000CF93DF9300D000D000D01F92CDB7DEB78F
:1003600029833A834B835C836D837E838F83E9810A
:10037000FA812081382F81E090E001C0880F3A9502
:10038000EAF7922F982B908322E02A95F1F790813B
:1003900080958923808385E18A95F1F7000027966F
:1003A0000FB6F894DEBF0FBECDBFDF91CF91089599
:1003B000CF93DF9300D000D000D01F92CDB7DEB72F
:1003C00029833A834B835C836D837E838F83E981AA
:1003D000FA812081382F81E090E001C0880F3A95A2
:1003E000EAF7922F982B908324E12A95F1F79081D8
:1003F00080958923808327960FB6F894DEBF0FBEC1
:10040000CDBFDF91CF9108950F931F93CF93DF93CB
:1004100000D000D000D01F92CDB7DEB729833A8339
:100420004B835C836D837E838F8309E010E00150F2
:1004300061F4812F27960FB6F894DEBF0FBECDBFB3
:10044000DF91CF911F910F91089529813A814B81BE
:100450005C816D817E818F810E946A0120E8829F8C
:10046000C00111241695182BE2CF0F931F93CF9341
:10047000DF9300D000D000D01F92CDB7DEB7298324
:100480003A834B835C836D837E838F8319E01150A5
:1004900059F427960FB6F894DEBF0FBECDBFDF919B
:1004A000CF911F910F91089529813A814B815C81F1
:1004B0006D817E818F8100FF04C00E94A801069596
:1004C000E6CF0E94D801FBCF1F920F920FB60F927A
:1004D0001124FF920F931F932F933F934F935F939A
:1004E0006F937F938F939F93AF93BF93EF93FF93FC
:1004F000CF93DF9300D000D0CDB7DEB781E00E946C
:10050000930083EC99E00197F1F700C0000020917F
:10051000690030916A0040916B0050916C006091CD
:100520006D0070916E0080916F000E94160188230B
:1005300009F486C00CEC2091690030916A0040916A
:100540006B0050916C0060916D0070916E00809115
:100550006F000E9435020EEB2091690030916A0015
:1005600040916B0050916C0060916D0070916E0035
:1005700080916F000E9435022091690030916A00DD
:1005800040916B0050916C0060916D0070916E0015
:1005900080916F000E940402082F20916900309121
:1005A0006A0040916B0050916C0060916D007091F9
:1005B0006E0080916F000E94040200938800809377
:1005C0008900182FF12C17FF05C01195019511090D
:1005D000FF24F39480EC0E9493008DE2F11001C09F
:1005E0008BE20E946C00802F8F70F82EFF0C880F1A
:1005F000880F880FF80E24E0169507952A95E1F7E5
:100600004AE0BE016F5F7F4F802F90E00E949B0504
:100610000E947A008EE20E946C00F2943FE0F32286
:100620004AE0BE016F5F7F4F8F2D90E00E949B05D7
:100630000E947A008AE20E946C0083E40E946C00AF
:100640002091690030916A0040916B0050916C00DC
:1006500060916D0070916E0080916F000E94160194
:10066000882309F40AC10CEC2091690030916A00DA
:1006700040916B0050916C0060916D0070916E0024
:1006800080916F000E94350204E42091690030914E
:100690006A0040916B0050916C0060916D00709108
:1006A0006E0080916F000E943502209162003091AF
:1006B0006300409164005091650060916600709104
:1006C0006700809168000E941601882309F486C0A3
:1006D0000CEC2091620030916300409164005091D5
:1006E00065006091660070916700809168000E94CB
:1006F00035020EEB2091620030916300409164005E
:10070000509165006091660070916700809168006B
:100710000E94350220916200309163004091640094
:10072000509165006091660070916700809168004B
:100730000E940402082F20916200309163004091D2
:10074000640050916500609166007091670080912F
:1007500068000E94040200938A0080938B00182F87
:10076000F12C17FF05C0119501951109FF24F39491
:1007700080E80E9493008DE2F11001C08BE20E949C
:100780006C00802F8F70F82EFF0C880F880F880F59
:10079000F80E84E0169507958A95E1F74AE0BE01C8
:1007A0006F5F7F4F802F90E00E949B050E947A0030
:1007B0008EE20E946C00F2949FE0F9224AE0BE01B2
:1007C0006F5F7F4F8F2D90E00E949B050E947A0003
:1007D0008AE20E946C0083E40E946C002091620017
:1007E0003091630040916400509165006091660013
:1007F00070916700809168000E941601882309F4B7
:1008000044C00CEC20916200309163004091640080
:10081000509165006091660070916700809168005A
:100820000E94350204E420916200309163004091FF
:10083000640050916500609166007091670080913E
:1008400068000E9435020F900F900F900F90DF917B
:10085000CF91FF91EF91BF91AF919F918F917F9138
:100860006F915F914F913F912F911F910F91FF9049
:100870000F900FBE0F901F90189580E80E94930074
:1008800080E790E00E947A0010CF80E80E949300F9
:1008900080E790E00E947A00D6CF9091800091305E
:1008A00059F090918200E92FF0E0E257FF4F8083EA
:1008B0009F5F93709093820008951F920F920FB6DE
:1008C0000F9211242F933F934F935F936F937F93D6
:1008D0008F939F93AF93BF93EF93FF939CB18091BE
:1008E0006100981315C0809188000E944D0480918A
:1008F00089000E944D0480918A000E944D048091DD
:100900008B000E944D045898559A81E08093800096
:10091000FF91EF91BF91AF919F918F917F916F91D7
:100920005F914F913F912F910F900FBE0F901F90AD
:1009300018951F920F920FB60F9211248F939F93C9
:100940009091830080918200981301C092989F91AA
:100950008F910F900FBE0F901F9018951F920F92BE
:100960000FB60F9211248F939F93EF93FF93929A58
:100970000000E091830081E08E0F80938300F0E01F
:10098000E257FF4F80818CB9809183008370809300
:10099000830090918200891304C05598589A109250
:1009A0008000FF91EF919F918F910F900FBE0F905C
:1009B0001F9018958FEF8ABB1BBA0E9449000E94B6
:1009C000AA0081E19AE79BBD8ABD1FBC8BE08EBD6A
:1009D00089B7806189BF2091690030916A00409198
:1009E0006B0050916C0060916D0070916E00809171
:1009F0006F000E94E80020916200309163004091F6
:100A0000640050916500609166007091670080916C
:100A100068000C94E8000E94DA042091690030918B
:100A20006A0040916B0050916C0060916D00709174
:100A30006E0080916F000E941601882309F46BC03C
:100A40000CEC2091690030916A0040916B0050914C
:100A50006C0060916D0070916E0080916F000E943B
:100A6000350204E42091690030916A0040916B00E6
:100A700050916C0060916D0070916E0080916F00DC
:100A80000E9435022FE38DE093E02150804090409A
:100A9000E1F700C00000789420916200309163007B
:100AA000409164005091650060916600709167000C
:100AB000809168000E9416018823A9F10CEC209116
:100AC0006200309163004091640050916500609134
:100AD000660070916700809168000E94350204E40E
:100AE0002091620030916300409164005091650054
:100AF0006091660070916700809168000E943502E5
:100B00002FE38DE093E0215080409040E1F700C05A
:100B100000007894FFCF80E80E94930080E790E087
:100B20000E947A00AFCF80E80E94930080E790E0B7
:100B30000E947A00E5CFBB27FB015527AA27880F23
:100B4000991FAA1FA41710F0A41B83955051B9F741
:100B5000A05DAA3308F0A95DA193009779F7B111C0
:100B6000B1931192CB010C94B505DC01FC01672F08
:100B700071917723E1F7329704C07C916D93708374
:0E0B80006291AE17BF07C8F30895F894FFCF37
:100B8E00087D310030003200073A0039003B000189
:100B9E00312D57617265203D204572726F720000D3
:00000001FF
